:020000040800F2
:1000000000280020ED080008750800087D08000899
:10001000850800088D080008950800080000000009
:100020000000000000000000000000009D08000823
:10003000A908000800000000B5080008C108000871
:100040003509000835090008350900083509000898
:100050003509000835090008350900083509000888
:100060003509000835090008350900083509000878
:100070003509000835090008350900083509000868
:100080003509000835090008350900083509000858
:100090003509000835090008350900083509000848
:1000A0003509000835090008350900083509000838
:1000B000CD080008350900080000000035090008D7
:1000C00035090008000000000000000035090008A4
:1000D0000000000035090008350900080000000094
:1000E000350900083509000835090008000000003E
:1000F0000000000000000000000000000000000000
:0C01000000000000000000005FF808F1A3
:10010C0010B5054C237833B9044B13B10448AFF345
:10011C0000800123237010BD10000020000000009F
:10012C000C1F000808B5034B1BB103490348AFF380
:10013C00008008BD00000000140000200C1F000807
:10014C0080B483B000AF78603960094B1B683A68A3
:10015C0092FBF3F207497B6841F82320064A7B683F
:10016C00002142F8231000BF0C37BD4680BC7047FD
:10017C00000000202C0000203000002080B483B050
:10018C0000AF00237B6016E00F4A7B6852F82330E7
:10019C005A1E0D497B6841F823200B4A7B6852F8A4
:1001AC002330002B04DC094A7B68012142F8231020
:1001BC007B6801337B607B68002BE5DD00BF00BFF3
:1001CC000C37BD4680BC70472C000020300000204E
:1001DC0080B582B000AF78607B68002B23D1002201
:1001EC000121C24800F08EFE00220221BF4800F01F
:1001FC0089FE00220421BD4800F084FE0022082163
:10020C00BA4800F07FFE00221021B84800F07AFEB8
:10021C0000222021B54800F075FE01224021B34890
:10022C0000F070FE5DE17B68012B23D101220121DE
:10023C00AE4800F067FE00220221AC4800F062FEDE
:10024C0000220421A94800F05DFE01220821A748E4
:10025C0000F058FE01221021A44800F053FE0122A8
:10026C002021A24800F04EFE012240219F4800F0C0
:10027C0049FE36E17B68022B23D1002201219B48E9
:10028C0000F040FE00220221984800F03BFE0122C3
:10029C000421964800F036FE00220821934800F015
:1002AC0031FE00221021914800F02CFE0122202169
:1002BC008E4800F027FE002240218C4800F022FEE0
:1002CC000FE17B68032B23D100220121874800F02A
:1002DC0019FE00220221854800F014FE00220421A0
:1002EC00824800F00FFE00220821804800F00AFE30
:1002FC00012210217D4800F005FE012220217B48BF
:10030C0000F000FE00224021784800F0FBFDE8E000
:10031C007B68042B23D101220121744800F0F2FDEB
:10032C0000220221714800F0EDFD002204216F48EB
:10033C0000F0E8FD012208216C4800F0E3FD0122E9
:10034C0010216A4800F0DEFD00222021674800F0F1
:10035C00D9FD00224021654800F0D4FDC1E07B6846
:10036C00052B23D100220121604800F0CBFD012296
:10037C0002215E4800F0C6FD002204215B4800F01B
:10038C00C1FD00220821594800F0BCFD01221021BA
:10039C00564800F0B7FD00222021544800F0B2FD71
:1003AC0000224021514800F0ADFD9AE07B68062BFD
:1003BC0023D1002201214D4800F0A4FD012202218D
:1003CC004A4800F09FFD00220421484800F09AFDA5
:1003DC0000220821454800F095FD002210214348D9
:1003EC0000F090FD00222021404800F08BFD0022FF
:1003FC0040213E4800F086FD73E07B68072B23D13B
:10040C0000220121394800F07DFD002202213748ED
:10041C0000F078FD00220421344800F073FD012225
:10042C000821324800F06EFD012210212F4800F007
:10043C0069FD012220212D4800F064FD012240219C
:10044C002A4800F05FFD4CE07B68082B23D100228A
:10045C000121264800F056FD00220221234800F01D
:10046C0051FD00220421214800F04CFD00220821FE
:10047C001E4800F047FD002210211C4800F042FDF0
:10048C0000222021194800F03DFD00224021174890
:10049C0000F038FD25E07B68092B22D100220121D8
:1004AC00124800F02FFD00220221104800F02AFD16
:1004BC00002204210D4800F025FD002208210B48E4
:1004CC0000F020FD01221021084800F01BFD002245
:1004DC002021064800F016FD00224021034800F0C0
:1004EC0011FD00BF0837BD4680BD00BF000C0140A8
:1004FC0080B582B000AF78607B68002B0AD10022F7
:10050C0040211B4800F0FEFC01228021184800F01D
:10051C00F9FC28E07B68012B0AD101224021144808
:10052C0000F0F0FC00228021114800F0EBFC1AE0F6
:10053C007B68022B0AD1012240210D4800F0E2FC1D
:10054C00012280210A4800F0DDFC0CE07B68032BC3
:10055C0009D101224021064800F0D4FC012280215F
:10056C00034800F0CFFC00BF0837BD4680BD00BF7C
:10057C000008014080B582B000AF7860FFF7FEFD47
:10058C0000BF0837BD4680BD80B500AF00F0CEF986
:10059C0000F034F800F0BAF800F06CF84FF4FA718F
:1005AC000020FFF7CDFD124801F0F2F8114B1B684B
:1005BC00002BFBD0104B1B681846FFF799FF0E4B16
:1005CC001B6801331846FFF703FE0B4B1B68013306
:1005DC00094A1360084B1B68012B02DD064B0022F5
:1005EC001A604FF4FA710020FFF7AAFDDEE700BF96
:1005FC0034000020300000207C00002080B590B03A
:10060C0000AF07F1180328220021184601F04CFC1A
:10061C003B1D00221A605A609A60DA601A6102234C
:10062C00BB610123BB621023FB6200237B6307F1D8
:10063C001803184600F07EFC0346002B01D000F096
:10064C00B7F80F237B600023BB600023FB60002303
:10065C003B6100237B613B1D0021184600F0ECFE42
:10066C000346002B01D000F0A3F800BF4037BD4675
:10067C0080BD000080B586B000AF07F108030022F2
:10068C001A605A609A60DA603B4600221A605A601F
:10069C001D4B4FF080421A601B4B41F63F725A6063
:1006AC00194B00229A60184B0922DA60164B002273
:1006BC001A61154B00229A61134801F019F8034690
:1006CC00002B01D000F074F84FF48053BB6007F19D
:1006DC00080319460C4801F097F90346002B01D08A
:1006EC0000F066F800233B6000237B603B46194614
:1006FC00054801F06FFB0346002B01D000F058F8C1
:10070C0000BF1837BD4680BD3400002080B586B0D0
:10071C0000AF07F1080300221A605A609A60DA6091
:10072C00204B9B691F4A43F0040393611D4B9B694B
:10073C0003F004037B607B681A4B9B69194A43F0F6
:10074C0008039361174B9B6903F008033B603B68FC
:10075C000022C021144800F0D5FB00227F21134851
:10076C0000F0D0FBC023BB600123FB6000233B6186
:10077C0002237B6107F1080319460B4800F046FA87
:10078C007F23BB600123FB6000233B6102237B6161
:10079C0007F108031946054800F038FA00BF18376E
:1007AC00BD4680BD0010024000080140000C014015
:1007BC0080B400AF72B600BF00BFFDE780B485B057
:1007CC0000AF154B9B69144A43F001039361124B24
:1007DC009B6903F00103BB60BB680F4BDB690E4ADE
:1007EC0043F08053D3610C4BDB6903F080537B6087
:1007FC007B680A4B5B68FB60FB6823F0E063FB6083
:10080C00FB6843F08063FB60044AFB68536000BFE5
:10081C001437BD4680BC70470010024000000140F8
:10082C0080B584B000AF78607B681B68B3F1804FF3
:10083C0013D10C4BDB690B4A43F00103D361094B19
:10084C00DB6903F00103FB60FB68002200211C2024
:10085C0000F0A5F91C2000F0BEF900BF1037BD4612
:10086C0080BD00BF0010024080B400AF00BFFDE7A8
:10087C0080B400AF00BFFDE780B400AF00BFFDE760
:10088C0080B400AF00BFFDE780B400AF00BFFDE750
:10089C0080B400AF00BFBD4680BC704780B400AFD1
:1008AC0000BFBD4680BC704780B400AF00BFBD46E2
:1008BC0080BC704780B500AF00F07EF800BF80BDF3
:1008CC0080B500AF024800F0AFFF00BF80BD00BF95
:1008DC003400002080B400AF00BFBD4680BC704720
:1008EC00FFF7F8FF0B480C490C4A002302E0D458E0
:1008FC00C4500433C4188C42F9D3094A094C002360
:10090C0001E013600432A242FBD301F0D5FAFFF7E9
:10091C003BFE70470000002010000020501F000814
:10092C001000002084000020FEE7000080B500AF1E
:10093C00084B1B68074A43F010031360032000F0B8
:10094C0023F90F2000F008F8FFF738FF00231846B2
:10095C0080BD00BF0020024080B582B000AF78603F
:10096C00124B1A68124B1B7819464FF47A73B3FB6F
:10097C00F1F3B2FBF3F3184600F03BF90346002BFE
:10098C0001D001230EE07B680F2B0AD80022796876
:10099C004FF0FF3000F003F9064A7B681360002328
:1009AC0000E0012318460837BD4680BD0400002036
:1009BC000C0000200800002080B400AF054B1B7811
:1009CC001A46054B1B681344034A136000BFBD460F
:1009DC0080BC70470C0000208000002080B400AF69
:1009EC00024B1B681846BD4680BC70478000002037
:1009FC0080B485B000AF78607B6803F00703FB60C0
:100A0C000C4BDB68BB60BA684FF6FF031340BB604E
:100A1C00FB681A02BB68134343F0BF6343F4003313
:100A2C00BB60044ABB68D36000BF1437BD4680BCB2
:100A3C00704700BF00ED00E080B400AF044BDB68F2
:100A4C001B0A03F007031846BD4680BC704700BF65
:100A5C0000ED00E080B483B000AF0346FB7197F962
:100A6C000730002B0BDBFB7903F01F02064997F9CB
:100A7C0007305B09012000FA02F241F8232000BF85
:100A8C000C37BD4680BC704700E100E080B483B0F9
:100A9C0000AF03463960FB7197F90730002B0ADB76
:100AAC003B68DAB20C4997F907301201D2B20B4409
:100ABC0083F800230AE03B68DAB20849FB7903F0BB
:100ACC000F03043B1201D2B20B441A7600BF0C3751
:100ADC00BD4680BC704700BF00E100E000ED00E0C7
:100AEC0080B489B000AFF860B9607A60FB6803F03D
:100AFC000703FB61FB69C3F10703042B28BF042325
:100B0C00BB61FB690433062B02D9FB69033B00E094
:100B1C0000237B614FF0FF32BB6902FA03F3DA4327
:100B2C00BB681A407B699A404FF0FF317B6901FA30
:100B3C0003F3D9437B680B40134318462437BD4657
:100B4C0080BC704780B582B000AF78607B68013B99
:100B5C00B3F1807F01D301230FE00A4A7B68013B8C
:100B6C0053600F214FF0FF30FFF790FF054B002231
:100B7C009A60044B07221A60002318460837BD46BA
:100B8C0080BD00BF10E000E080B582B000AF78609F
:100B9C007868FFF72DFF00BF0837BD4680BD80B5D4
:100BAC0086B000AF0346B9607A60FB7300237B61AB
:100BBC00FFF742FF78617A68B9687869FFF790FFB0
:100BCC00024697F90F3011461846FFF75FFF00BF3A
:100BDC001837BD4680BD80B582B000AF0346FB71AF
:100BEC0097F907301846FFF735FF00BF0837BD46A9
:100BFC0080BD80B582B000AF78607868FFF7A2FF47
:100C0C00034618460837BD4680BD000080B48BB043
:100C1C0000AF7860396000237B6200233B6261E1A6
:100C2C0001227B6A02FA03F3FB613B681B68FA69D9
:100C3C001340BB61BA69FB699A4240F050813B6832
:100C4C005B68974A93425ED0954A934275D8954A11
:100C5C00934258D0934A93426FD8934A934252D0BE
:100C6C00914A934269D8914A93424CD08F4A93420D
:100C7C0063D88F4A934246D08D4A93425DD8122B4B
:100C8C002AD8122B59D801A252F823F0130D0008C0
:100C9C00ED0C0008FF0C0008410D0008470D000882
:100CAC00470D0008470D0008470D0008470D0008C8
:100CBC00470D0008470D0008470D0008470D0008B8
:100CCC00470D0008470D0008470D0008470D0008A8
:100CDC00F50C0008090D0008764A934213D02CE05D
:100CEC003B68DB683B6229E03B68DB6804333B62B2
:100CFC0024E03B68DB6808333B621FE03B68DB6841
:100D0C000C333B621AE03B689B68002B02D1042336
:100D1C003B6213E03B689B68012B05D108233B62C7
:100D2C007B68FA691A6109E008233B627B68FA69FF
:100D3C005A6103E000233B6200E000BFBB69FF2B5C
:100D4C0001D87B6801E07B6804337B61BB69FF2BB6
:100D5C0002D87B6A9B0002E07B6A083B9B003B61EC
:100D6C007B691A680F213B6901FA03F3DB431A40D4
:100D7C00396A3B6901FA03F31A437B691A603B68D1
:100D8C005B6803F08053002B00F0A9804A4B9B69F1
:100D9C00494A43F001039361474B9B6903F00103FC
:100DAC00BB60BB68454A7B6A9B08023352F8233010
:100DBC00FB607B6A03F003039B000F2202FA03F330
:100DCC00DB43FA681340FB607B683D4A93420DD0CD
:100DDC007B683C4A934207D07B683B4A934201D1E3
:100DEC00022304E0032302E0012300E000237A6ADB
:100DFC0002F0030292009340FA681343FB602F4900
:100E0C007B6A9B080233FA6841F823203B685B68D5
:100E1C0003F48013002B06D02C4B9A682B49BB692A
:100E2C0013438B6006E0294B9A68BB69DB43274967
:100E3C0013408B603B685B6803F40013002B06D0F7
:100E4C00224BDA682149BB691343CB6006E01F4B88
:100E5C00DA68BB69DB431D491340CB603B685B68B8
:100E6C0003F40033002B06D0184B5A681749BB69A2
:100E7C0013434B6006E0154B5A68BB69DB431349BF
:100E8C0013404B603B685B6803F48033002B1FD02E
:100E9C000E4B1A680D49BB6913430B601FE000BF72
:100EAC000000321000003110000022100000211050
:100EBC000000121000001110001002400000014050
:100ECC0000080140000C01400010014000040140EA
:100EDC000B4B1A68BB69DB43094913400B607B6AF7
:100EEC0001337B623B681A687B6A22FA03F3002B9E
:100EFC007FF496AE00BF00BF2C37BD4680BC704758
:100F0C000004014080B483B000AF78600B467B8056
:100F1C0013467B707B78002B03D07A887B681A6130
:100F2C0003E07B881A047B681A6100BF0C37BD464E
:100F3C0080BC704780B586B000AF78607B68002BB2
:100F4C0001D1012372E27B681B6803F00103002BC3
:100F5C0000F08780924B5B6803F00C03042B0CD0E1
:100F6C008F4B5B6803F00C03082B12D18C4B5B6826
:100F7C0003F48033B3F5803F0BD1894B1B6803F42A
:100F8C000033002B6CD07B685B68002B68D101238D
:100F9C004CE27B685B68B3F5803F06D1804B1B68E5
:100FAC007F4A43F4803313602EE07B685B68002B30
:100FBC000CD17B4B1B687A4A23F480331360784B3B
:100FCC001B68774A23F4802313601DE07B685B6801
:100FDC00B3F5A02F0CD1724B1B68714A43F48023DC
:100FEC0013606F4B1B686E4A43F4803313600BE045
:100FFC006B4B1B686A4A23F480331360684B1B6885
:10100C00674A23F4802313607B685B68002B13D042
:10101C00FFF7E4FC386108E0FFF7E0FC02463B69AF
:10102C00D31A642B01D9032300E25D4B1B6803F434
:10103C000033002BF0D014E0FFF7D0FC386108E04F
:10104C00FFF7CCFC02463B69D31A642B01D903236E
:10105C00ECE1534B1B6803F40033002BF0D100E0A0
:10106C0000BF7B681B6803F00203002B63D04C4B62
:10107C005B6803F00C03002B0BD0494B5B6803F04F
:10108C000C03082B1CD1464B5B6803F48033002BFC
:10109C0016D1434B1B6803F00203002B05D07B6871
:1010AC001B69012B01D00123C0E13D4B1B6823F0D0
:1010BC00F8027B685B69DB00394913430B603AE04B
:1010CC007B681B69002B20D0364B01221A60FFF77E
:1010DC0085FC386108E0FFF781FC02463B69D31AB6
:1010EC00022B01D90323A1E12D4B1B6803F0020352
:1010FC00002BF0D02A4B1B6823F0F8027B685B694D
:10110C00DB00274913430B6015E0264B00221A60C5
:10111C00FFF764FC386108E0FFF760FC02463B69AE
:10112C00D31A022B01D9032380E11D4B1B6803F05A
:10113C000203002BF0D17B681B6803F00803002B23
:10114C003AD07B689B69002B19D0174B01221A608F
:10115C00FFF744FC386108E0FFF740FC02463B69AE
:10116C00D31A022B01D9032360E10D4B5B6A03F008
:10117C000203002BF0D0012000F09CFA1CE00A4B7B
:10118C0000221A60FFF72AFC38610FE0FFF726FCFB
:10119C0002463B69D31A022B08D9032346E100BF50
:1011AC00001002400000424280044242924B5B6AB3
:1011BC0003F00203002BE9D17B681B6803F00403E6
:1011CC00002B00F0A6800023FB758B4BDB6903F032
:1011DC008053002B0DD1884BDB69874A43F0805339
:1011EC00D361854BDB6903F08053BB60BB68012383
:1011FC00FB75824B1B6803F48073002B18D17F4B5B
:10120C001B687E4A43F480731360FFF7E7FB386179
:10121C0008E0FFF7E3FB02463B69D31A642B01D9C4
:10122C00032303E1754B1B6803F48073002BF0D090
:10123C007B68DB68012B06D16F4B1B6A6E4A43F04F
:10124C00010313622DE07B68DB68002B0CD16A4B29
:10125C001B6A694A23F001031362674B1B6A664AD7
:10126C0023F0040313621CE07B68DB68052B0CD1B4
:10127C00614B1B6A604A43F0040313625E4B1B6AAA
:10128C005D4A43F0010313620BE05B4B1B6A5A4A45
:10129C0023F001031362584B1B6A574A23F00403D3
:1012AC0013627B68DB68002B15D0FFF797FB386166
:1012BC000AE0FFF793FB02463B69D31A41F28832EE
:1012CC00934201D90323B1E04B4B1B6A03F0020399
:1012DC00002BEED014E0FFF781FB38610AE0FFF73A
:1012EC007DFB02463B69D31A41F28832934201D905
:1012FC0003239BE0404B1B6A03F00203002BEED14F
:10130C00FB7D012B05D13C4BDB693B4A23F0805321
:10131C00D3617B68DB69002B00F08780364B5B6800
:10132C0003F00C03082B61D07B68DB69022B46D1E0
:10133C00334B00221A60FFF751FB386108E0FFF7CE
:10134C004DFB02463B69D31A022B01D903236DE0F6
:10135C00294B1B6803F00073002BF0D17B681B6AD0
:10136C00B3F5803F08D1244B5B6823F400327B68D3
:10137C009B68214913434B601F4B5B6823F4741229
:10138C007B68196A7B685B6A0B431B4913434B6090
:10139C001B4B01221A60FFF721FB386108E0FFF7B5
:1013AC001DFB02463B69D31A022B01D903233DE0F6
:1013BC00114B1B6803F00073002BF0D035E0104B81
:1013CC0000221A60FFF70AFB386108E0FFF706FB02
:1013DC0002463B69D31A022B01D9032326E0064BA4
:1013EC001B6803F00073002BF0D11EE07B68DB69F7
:1013FC00012B07D1012319E00010024000700040BE
:10140C00600042420B4B5B68FB60FB6803F480326C
:10141C007B681B6A9A4206D1FB6803F470127B68E6
:10142C005B6A9A4201D0012300E00023184618376A
:10143C00BD4680BD0010024080B584B000AF78601E
:10144C0039607B68002B01D10123D0E06A4B1B680B
:10145C0003F007033A689A4210D9674B1B6823F0D4
:10146C00070265493B6813430B60634B1B6803F031
:10147C0007033A689A4201D00123B8E07B681B68E5
:10148C0003F00203002B20D07B681B6803F00403DD
:10149C00002B05D0594B5B68584A43F4E06353600A
:1014AC007B681B6803F00803002B05D0534B5B686B
:1014BC00524A43F460535360504B5B6823F0F00284
:1014CC007B689B684D4913434B607B681B6803F03A
:1014DC000103002B40D07B685B68012B07D1474B85
:1014EC001B6803F40033002B15D101237FE07B68CC
:1014FC005B68022B07D1414B1B6803F00073002B78
:10150C0009D1012373E03D4B1B6803F00203002B50
:10151C0001D101236BE0394B5B6823F003027B683C
:10152C005B68364913434B60FFF758FAF8600AE0E2
:10153C00FFF754FA0246FB68D31A41F28832934201
:10154C0001D9032353E02D4B5B6803F00C027B683D
:10155C005B689B009A42EBD1274B1B6803F0070397
:10156C003A689A4210D2244B1B6823F00702224996
:10157C003B6813430B60204B1B6803F007033A686E
:10158C009A4201D0012332E07B681B6803F004030C
:10159C00002B08D0194B5B6823F4E0627B68DB6896
:1015AC00164913434B607B681B6803F00803002B40
:1015BC0009D0124B5B6823F460527B681B69DB001B
:1015CC000E4913434B6000F021F802460B4B5B684D
:1015DC001B0903F00F030A49CB5C22FA03F3094AF7
:1015EC001360094B1B681846FFF7B6F90023184621
:1015FC001037BD4680BD00BF0020024000100240E5
:10160C00241F0008040000200800002080B487B0CC
:10161C0000AF0023FB600023BB6000237B61002331
:10162C007B6000233B611E4B5B68FB60FB6803F037
:10163C000C03042B02D0082B03D027E0194B3B6181
:10164C0027E0FB689B0C03F00F03174AD35C7B600D
:10165C00FB6803F48033002B10D0114B5B685B0CE0
:10166C0003F00103114AD35CBB607B680D4A03FB9A
:10167C0002F2BB68B2FBF3F37B6104E07B680C4ABB
:10168C0002FB03F37B617B693B6102E0054B3B6131
:10169C0000BF3B6918461C37BD4680BC704700BF75
:1016AC000010024000127A00341F0008441F00088A
:1016BC0000093D0080B485B000AF78600A4B1B6810
:1016CC000A4AA2FB03235B0A7A6802FB03F3FB6062
:1016DC0000BFFB685A1EFA60002BF9D100BF00BF97
:1016EC001437BD4680BC704704000020D34D6210F7
:1016FC0080B582B000AF78607B68002B01D10123EC
:10170C0041E07B6893F83D30DBB2002B06D17B685F
:10171C00002283F83C207868FFF782F87B6802226D
:10172C0083F83D207B681A687B68043319461046A1
:10173C0000F056FA7B68012283F846207B68012270
:10174C0083F83E207B68012283F83F207B680122CE
:10175C0083F840207B68012283F841207B680122BA
:10176C0083F842207B68012283F843207B680122A6
:10177C0083F844207B68012283F845207B68012292
:10178C0083F83D20002318460837BD4680BD000075
:10179C0080B485B000AF78607B6893F83D30DBB2E5
:1017AC00012B01D0012335E07B68022283F83D2018
:1017BC007B681B68DA687B681B6842F00102DA60A0
:1017CC007B681B68164A934209D07B681B68B3F18F
:1017DC00804F04D07B681B68124A934211D17B68FE
:1017EC001B689B6803F00703FB60FB68062B10D09B
:1017FC007B681B681A687B681B6842F001021A60E0
:10180C0007E07B681B681A687B681B6842F0010262
:10181C001A60002318461437BD4680BC704700BFC1
:10182C00002C01400004004080B584B000AF78600B
:10183C007B681B68DB68FB607B681B681B69BB6093
:10184C00BB6803F00203002B20D0FB6803F00203FB
:10185C00002B1BD07B681B686FF002021A617B683F
:10186C0001221A777B681B689B6903F00303002B2A
:10187C0003D0786800F098F905E0786800F08BF9EF
:10188C00786800F09AF97B6800221A77BB6803F03D
:10189C000403002B20D0FB6803F00403002B1BD0A7
:1018AC007B681B686FF004021A617B6802221A774E
:1018BC007B681B689B6903F44073002B03D078682A
:1018CC0000F072F905E0786800F065F9786800F0CE
:1018DC0074F97B6800221A77BB6803F00803002BAD
:1018EC0020D0FB6803F00803002B1BD07B681B681F
:1018FC006FF008021A617B6804221A777B681B68F8
:10190C00DB6903F00303002B03D0786800F04CF97B
:10191C0005E0786800F03FF9786800F04EF97B68D4
:10192C0000221A77BB6803F01003002B20D0FB6851
:10193C0003F01003002B1BD07B681B686FF01002A8
:10194C001A617B6808221A777B681B68DB6903F4D1
:10195C004073002B03D0786800F026F905E0786816
:10196C0000F019F9786800F028F97B6800221A77E2
:10197C00BB6803F00103002B0CD0FB6803F00103E0
:10198C00002B07D07B681B686FF001021A61786826
:10199C00FEF7F0FDBB6803F08003002B0CD0FB6856
:1019AC0003F08003002B07D07B681B686FF080026C
:1019BC001A61786800F06FFABB6803F04003002BE3
:1019CC000CD0FB6803F04003002B07D07B681B682E
:1019DC006FF040021A61786800F0F8F8BB6803F009
:1019EC002003002B0CD0FB6803F02003002B07D046
:1019FC007B681B686FF020021A61786800F042FA6D
:101A0C0000BF1037BD4680BD80B584B000AF786094
:101A1C0039600023FB737B6893F83C30012B01D1B8
:101A2C000223B4E07B68012283F83C207B6802220D
:101A3C0083F83D207B681B689B68BB60BB6823F008
:101A4C007703BB60BB6823F47F43BB607B681B6878
:101A5C00BA689A603B681B68B3F5005F3ED0B3F57B
:101A6C00005F00F28780B3F5805F00F08680B3F5ED
:101A7C00805F7FD8702B1AD0702B7BD8602B50D006
:101A8C00602B77D8502B3CD0502B73D8402B58D090
:101A9C00402B6FD8302B64D0302B6BD8202B60D0E0
:101AAC00202B67D8002B5CD0102B5AD062E07B68BF
:101ABC0018683B6899683B685A683B68DB6800F0BB
:101ACC006AF97B681B689B68BB60BB6843F0770353
:101ADC00BB607B681B68BA689A604FE07B681868CB
:101AEC003B6899683B685A683B68DB6800F053F9BF
:101AFC007B681B689A687B681B6842F480429A601A
:101B0C003CE07B6818683B6859683B68DB681A46A0
:101B1C0000F0CAF87B681B685021184600F021F9C8
:101B2C002CE07B6818683B6859683B68DB681A4690
:101B3C0000F0E8F87B681B686021184600F011F98A
:101B4C001CE07B6818683B6859683B68DB681A4680
:101B5C0000F0AAF87B681B684021184600F001F9D8
:101B6C000CE07B681A683B681B681946104600F04D
:101B7C00F8F803E00123FB7300E000BF7B6801224F
:101B8C0083F83D207B68002283F83C20FB7B1846C1
:101B9C001037BD4680BD80B483B000AF786000BF05
:101BAC000C37BD4680BC704780B483B000AF786002
:101BBC0000BF0C37BD4680BC704780B483B000AF0B
:101BCC00786000BF0C37BD4680BC704780B483B0D2
:101BDC0000AF786000BF0C37BD4680BC704700007A
:101BEC0080B485B000AF786039607B681B68FB609F
:101BFC007B682B4A934207D07B68B3F1804F03D0AC
:101C0C007B68284A934208D1FB6823F07003FB6081
:101C1C003B685B68FA681343FB607B68204A93421D
:101C2C0007D07B68B3F1804F03D07B681D4A934289
:101C3C0008D1FB6823F44073FB603B68DB68FA68EF
:101C4C001343FB60FB6823F080023B685B69134322
:101C5C00FB607B68FA681A603B689A687B68DA629A
:101C6C003B681A687B689A627B680D4A934203D181
:101C7C003B681A697B681A637B6801225A617B682E
:101C8C001B6903F00103002B05D07B681B6923F053
:101C9C0001027B681A6100BF1437BD4680BC7047D7
:101CAC00002C01400004004080B487B000AFF86005
:101CBC00B9607A60FB681B6A7B61FB681B6A23F066
:101CCC000102FB681A62FB689B693B613B6923F06C
:101CDC00F0033B617B681B013A6913433B617B69F1
:101CEC0023F00A037B617A69BB6813437B61FB6851
:101CFC003A699A61FB687A691A6200BF1C37BD4663
:101D0C0080BC704780B487B000AFF860B9607A606F
:101D1C00FB681B6A7B61FB681B6A23F01002FB6883
:101D2C001A62FB689B693B613B6923F470433B611E
:101D3C007B681B033A6913433B617B6923F0A00367
:101D4C007B61BB681B017A6913437B61FB683A6951
:101D5C009A61FB687A691A6200BF1C37BD4680BC69
:101D6C00704780B485B000AF786039607B689B6841
:101D7C00FB60FB6823F07003FB603A68FB6813435D
:101D8C0043F00703FB607B68FA689A6000BF143766
:101D9C00BD4680BC704780B487B000AFF860B960B6
:101DAC007A603B60FB689B687B617B6923F47F43B3
:101DBC007B613B681A027B681A43BB6813437A69E0
:101DCC0013437B61FB687A699A6000BF1C37BD4680
:101DDC0080BC704780B485B000AF786039607B6898
:101DEC0093F83C30012B01D1022341E07B680122A6
:101DFC0083F83C207B68022283F83D207B681B68BB
:101E0C005B68FB607B681B689B68BB60FB6823F0AE
:101E1C007003FB603B681B68FA681343FB607B68CC
:101E2C001B68FA685A607B681B68144A934209D095
:101E3C007B681B68B3F1804F04D07B681B68104A29
:101E4C0093420CD1BB6823F08003BB603B685B689A
:101E5C00BA681343BB607B681B68BA689A607B687E
:101E6C00012283F83D207B68002283F83C2000236C
:101E7C0018461437BD4680BC704700BF002C01408B
:101E8C000004004080B483B000AF786000BF0C3712
:101E9C00BD4680BC704780B483B000AF786000BF93
:101EAC000C37BD4680BC704703460244934200D1B8
:101EBC00704703F8011BF9E770B500260C4D0D4C6B
:101ECC00641BA410A64209D100F01AF800260A4D92
:101EDC000A4C641BA410A64205D170BD55F8043BF6
:101EEC0098470136EEE755F8043B98470136F2E780
:101EFC00481F0008481F0008481F00084C1F000816
:101F0C00F8B500BFF8BC08BC9E467047F8B500BFDA
:081F1C00F8BC08BC9E467047AA
:101F24000000000000000000010203040607080985
:101F340002030405060708090A0B0C0D0E0F101006
:041F44000102000096
:041F4800310100085B
:041F4C000D0100087B
:101F50000A00000000127A001000000001000000DA
:04000005080008EDFA
:00000001FF
